:10000000C7ED01F0C0EC01F0CDEC01F009EC00F01F
:100010000000CEA71CEF01F0C990C190C992C19217
:10002000C994C194C996C196C998C198C99AC19AF0
:10003000C99CC18CC99EC18ECEA71CEF01F0F4ED06
:10004000FFF0F4EDFFF0F4EDFFF0F4EDFFF0C990F8
:10005000C180C992C192C994C194C996C186C998F8
:10006000C188C99AC18AC99CC18CC99EC18ECEA7BC
:100070001CEF01F0F4EDFFF0F4EDFFF0F4EDFFF014
:10008000F4EDFFF0C990C190C992C192C994C184A6
:10009000C996C196C998C198C99AC18AC99CC19C80
:1000A000C99EC18ECEA71CEF01F0F4EDFFF0F4ED78
:1000B000FFF0F4EDFFF0F4EDFFF0C990C190C992AC
:1000C000C192C994C194C996C196C998C188C99A68
:1000D000C18AC99CC19CC99EC18ECEA71CEF01F0EC
:1000E000F4EDFFF0F4EDFFF0F4EDFFF0F4EDFFF0D0
:1000F000C990C180C992C192C994C194C996C18660
:10010000C998C188C99AC19AC99CC19CC99EC18E0F
:10011000CEA71CEF01F0F4EDFFF0F4EDFFF0F4EDED
:10012000FFF0F4EDFFF0C990C190C992C182C9946B
:10013000C194C996C196C998C188C99AC19AC99CE7
:10014000C19CC99EC18ECEA71CEF01F0F4EDFFF05B
:10015000F4EDFFF0F4EDFFF0F4EDFFF0C990C19085
:10016000C992C182C994C194C996C196C998C198CF
:10017000C99AC19AC99CC19CC99EC18ECEA71CEFC9
:1001800001F0F4EDFFF0F4EDFFF0F4EDFFF0F4ED2D
:10019000FFF0C990C190C992C192C994C194C99607
:1001A000C186C998C188C99AC18AC99CC18CC99E97
:1001B000C18ECEA71CEF01F0F4EDFFF0F4EDFFF0DF
:1001C000F4EDFFF0F4EDFFF0C990C190C992C19237
:1001D000C994C194C996C196C998C198C99AC19A3F
:1001E000C99CC19CC99EC18ECEA71CEF01F0F4ED45
:1001F000FFF0F4EDFFF0F4EDFFF0F4EDFFF0C99047
:10020000C190C992C192C994C194C996C186C99836
:10021000C188C99AC19AC99CC19CC99EC18ECEA7EA
:100220001CEF01F0F4EDFFF0F4EDFFF0F4EDFFF062
:10023000F4EDFFF009EF00F0C990C190C992C192AE
:10024000C994C194C996C186C998C198C99AC19ADE
:10025000C99CC19CC99EC18ECEB70CEF00F0F4EDD5
:10026000FFF0F4EDFFF0F4EDFFF0F4EDFFF0C990D6
:10027000C180C992C182C994C194C996C196C998D6
:10028000C198C99AC19AC99CC19CC99EC18ECEB75A
:100290000CEF00F0F4EDFFF0F4EDFFF0F4EDFFF003
:1002A000F4EDFFF0C990C190C992C182C994C18494
:1002B000C996C196C998C198C99AC19AC99CC18C5E
:1002C000C99EC18ECEB70CEF00F0F4EDFFF0F4ED57
:1002D000FFF0F4EDFFF0F4EDFFF0C990C180C9929A
:1002E000C192C994C194C996C196C998C198C99A36
:1002F000C18AC99CC19CC99EC18ECEB70CEF00F0CB
:10030000F4EDFFF0F4EDFFF0F4EDFFF0F4EDFFF0AD
:10031000C990C190C992C182C984C184C996C1964D
:10032000C998C198C99AC19AC99CC19CC99EC18EDD
:10033000CEB70CEF00F0F4EDFFF0F4EDFFF0F4EDCC
:10034000FFF0F4EDFFF0C990C190C992C182C99449
:10035000C184C996C186C998C198C99AC19AC99CD5
:10036000C19CC99EC18FCEB70CEF00F0F4EDFFF039
:10037000F4EDFFF0F4EDFFF0F4EDFFF009EF00F025
:100380000401CE6B006BC687BE8701871200000197
:10039000600EAD6F020EB16F12000401D16A186ACF
:0203A000120049
:020000040001F9
:10FEDA0000EF00F0010E006E0000002E71EFFFF03F
:10FEEA001200050E006E0000002E78EFFFF01200DF
:10FEFA000B0E006E0000002E7FEFFFF01200180EAE
:10FF0A00006E0000002E86EFFFF01200310E006E28
:10FF1A000000002E8DEFFFF012003D0E006E000073
:10FF2A00002E94EFFFF012007C0E006E0000002EEF
:10FF3A009BEFFFF01200010E016EF90E006E000039
:10FF4A00002EA4EFFFF0012EA2EFFFF01200050E23
:10FF5A00016EF90E006E0000002EB0EFFFF0012EC8
:10FF6A00AEEFFFF012000A0E016EF90E006E0000ED
:10FF7A00002EBCEFFFF0012EBAEFFFF01200190EAF
:10FF8A00016EF90E006E0000002EC8EFFFF0012E80
:10FF9A00C6EFFFF01200320E016EF90E006E00007D
:10FFAA00002ED4EFFFF0012ED2EFFFF01200640E04
:10FFBA00016EF90E006E0000002EE0EFFFF0012E38
:10FFCA00DEEFFFF01200C80E016EF90E006E00009F
:10FFDA00002EECEFFFF0012EEAEFFFF01200FA0E0E
:10FFEA00016EF90E006E0000002EF8EFFFF0012EF0
:06FFFA00F6EFFFF012001B
:020000040030CA
:10000000EC0D27C79FFFFFFFFFFFFFFFFFFFFFFF75
:10001000FFFFFFFFFFFFFFFFFFFFFFFFFFFFFFFFF0
:03002000FFFFFFE0
:00000001FF
