:1000000014EF00F0AFA00AEF00F0AF903DEF00F06A
:10001000D06AAF90AF901000B8A045EF00F0BBEFF2
:1000200000F0B890B490100053ED00F059ED00F0DE
:100030006EED00F078ED00F01EEF00F0C376A0ED5D
:1000400000F0C376A0ED00F01EEF00F0C3860401BF
:10005000000EFB6F010EFA6F034489EC00F0C06ED6
:1000600094ED00F0042E3AEF00F0052E3FEF00F083
:1000700008EF00F0032A26EF00F0050E056E0A0EC9
:10008000046E000E036E26EF00F0B4A011EF00F036
:100090004AEF00F0B490B8B0BBEF00F0B4A04BEF63
:1000A00000F011EF00F00001600EAD6F020EB16FB5
:1000B00012000401CE6B006BC68701870401CF6B71
:1000C000086BC78909890401D06B106BC86B0401E8
:1000D000D36A286BCB85CB97298512000201030ECA
:1000E0003E6F02010C0E3F6F02012A0E406F12009C
:1000F000D68A0301639168936C93D690AF909F80EA
:10010000D692B490A480D694B890A880D68ED68C7F
:100110001200F926810C420C240C180C000C180C4F
:10012000240C420C810C000CFA0E016EF90E006ECC
:100130000000002E98EF00F0012E96EF00F0120064
:10014000020E026EFA0E016EF90E006E0000002E15
:10015000A6EF00F0012EA4EF00F0022EA2EF00F0B7
:100160001200140E006E0000002EB3EF00F0012EFE
:08017000B1EF00F01200B8909D
:020000040030CA
:10000000EC0D27C79FFFFFFFFFFFFFFFFFFFFFFF75
:10001000FFFFFFFFFFFFFFFFFFFFFFFFFFFFFFFFF0
:03002000FFFFFFE0
:00000001FF
